:020000040800F2
:1000000000280020D9010008290200082902000860
:100010002902000829020008290200080000000047
:10002000000000000000000000000000290200089D
:100030002902000800000000290200082902000827
:1000400029020008290200082902000829020008E4
:1000500029020008290200082902000829020008D4
:1000600029020008290200082902000829020008C4
:1000700029020008290200082902000829020008B4
:1000800029020008290200082902000829020008A4
:100090002902000829020008290200082902000894
:1000A0002902000829020008290200082902000884
:1000B0002902000829020008290200082902000874
:1000C0002902000829020008290200082902000864
:1000D0002902000829020008290200082902000854
:1000E0002902000829020008000000002902000877
:1000F0002902000829020008290200082902000834
:100100002902000829020008290200082902000823
:100110002902000829020008290200082902000813
:100120002902000829020008290200082902000803
:1001300010B5054C237833B9044B13B10448AFF321
:1001400000800123237010BD00000020000000008B
:100150007402000808B5034B1BB103490348AFF311
:10016000008008BD000000000400002074020008A8
:1001700080B483B000AF154B1B68144A43F00403EE
:100180001360134B1B68124A23F470031360104B67
:100190001B680F4A43F4001313600E4B1B680D4A93
:1001A00043F40053136000237B6002E07B6801335B
:1001B0007B607B6841F287329342F7DD054B1B6819
:1001C000044A23F400531360E7E700BF181002400D
:1001D000040801400C0801400D488546AFF300803B
:1001E0000C480D490D4A002302E0D458C450043392
:1001F000C4188C42F9D30A4A0A4C002301E0136068
:100200000432A242FBD300F011F8FFF7B1FFFEE782
:1002100000280020000000200000002094020008B8
:10022000000000201C000020FEE7000070B5002543
:100230000C4E0D4CA41BA410A54209D100F01AF8D5
:1002400000250A4E0A4CA41BA410A54205D170BD7E
:1002500056F8253098470135EEE756F8253098478F
:100260000135F2E78C0200088C0200088C020008BD
:1002700090020008F8B500BFF8BC08BC9E46704765
:0C028000F8B500BFF8BC08BC9E467047F3
:04028C005501000810
:040290003101000830
:04000005080001D915
:00000001FF
